:04000000D76AA4789F
:04000100E8C7B7563F
:04000200242070DB6B
:04000300C1BDCEEEBF
:04000400F57C0FAFC9
:040005004787C62A39
:04000600A8304613C5
:04000700FD4695011C
:04000800698098D89B
:040009008B44F7AF7E
:04000A00FFFF5BB1E8
:04000B00895CD7BE77
:04000C006B901122C2
:04000D00FD98719356
:04000E00A679438EFE
:04000F0049B40821C7
:04001000F61E256251
:04001100C040B340F8
:04001200265E5A51BB
:04001300E9B6C7AAD9
:04001400D62F105D76
:04001500024414533A
:04001600D8A1E68106
:04001700E7D3FBC868
:0400180021E1CDE62F
:04001900C33707D60C
:04001A00F4D50D8785
:04001B00455A14ED41
:04001C00A9E3E90566
:04001D00FCEFA3F859
:04001E00676F02D92D
:04001F008D2A4C8A50
:04002000FFFA394268
:040021008771F6816C
:040022006D9D61224D
:04002300FDE5380CB3
:04002400A4BEEA4448
:040025004BDECFA936
:04002600F6BB4B607A
:04002700BEBFBC702C
:04002800289B7EC6CD
:04002900EAA127FA27
:04002A00D4EF30855A
:04002B0004881D0523
:04002C00D9D4D0391A
:04002D00E6DB99E590
:04002E001FA27CF899
:04002F00C4AC5665A2
:04003000F429224449
:04003100432AFF97C8
:04003200AB9423A7C1
:04003300FC93A03961
:04003400655B59C3EC
:040035008F0CCC92CE
:04003600FFEFF47D67
:0400370085845DD18E
:040038006FA87E4FE0
:04003900FE2CE6E0D3
:04003A00A3014314C7
:04003B004E0811A1B9
:04003C00F7537E8276
:04003D00BD3AF235A1
:04003E002AD7D2BB30
:04003F00EB86D391E8
:00000001FF
